S018000052616461725F4154584D3235364133552E7372656323
S11300000C940D010C942E010C942E010C942E01D1
S11300100C942E010C942E010C942E010C942E01A0
S11300200C942E010C942E010C942E010C942E0190
S11300300C942E010C942E010C942E010C942E0180
S11300400C942E010C942E010C942E010C942E0170
S11300500C942E010C942E010C942E010C942E0160
S11300600C942E010C942E010C942E010C942E0150
S11300700C942E010C942E010C942E010C942E0140
S11300800C942E010C942E010C942E010C942E0130
S11300900C942E010C942E010C942E010C942E0120
S11300A00C942E010C942E010C942E010C942E0110
S11300B00C942E010C942E010C942E010C945008D7
S11300C00C942E010C942E010C942E010C942E01F0
S11300D00C942E010C942E010C942E010C942E01E0
S11300E00C942E010C942E010C942E010C942E01D0
S11300F00C942E010C942E010C942E010C942E01C0
S11301000C942E010C942E010C942E010C942E01AF
S11301100C942E010C942E010C942E010C942E019F
S11301200C942E010C942E010C942E010C942E018F
S11301300C942E010C942E010C942E010C942E017F
S11301400C942E010C942E010C942E010C942E016F
S11301500C942E010C942E010C942E010C942E015F
S11301600C942E010C942E010C942E010C942E014F
S11301700C942E010C942E010C942E010C942E013F
S11301800C942E010C942E010C942E010C942E012F
S11301900C942E010C942E010C942E010C942E011F
S11301A00C942E010C942E010C942E010C942E010F
S11301B00C942E010C942E010C942E010C942E01FF
S11301C00C942E010C942E010C942E010C942E01EF
S11301D00C942E010C942E010C942E010C942E01DF
S11301E00C942E010C942E010C942E010C942E01CF
S11301F00C942E010C942E010C942E0105A84CCDC8
S1130200B2D44EB93836A9020C50B9918688083C4C
S1130210A6AAAA2ABE000000803F11241FBECFEF69
S1130220CDBFDFE5DEBF00E00CBF10E2A0E0B0E22E
S1130230E6E2F9E100E00BBF02C007900D92AA309C
S1130240B107D9F728E4AAE0B0E201C01D92AD30AD
S1130250B207E1F70E94A5080C94910C0C940000DD
S1130260AC0121E030E080E090E003C0220F331FB6
S1130270019624173507D0F308954F925F926F9239
S11302807F928F929F92AF92BF92CF92DF92EF9222
S1130290FF920F931F93CF93DF93CDB7DEB7A89749
S11302A0CDBFDEBF298B3A8B4B8B5C8B6D8B7E8BEA
S11302B08F8B988FA98EBA8ECB8EDC8EED8EFE8EB0
S11302C00F8F18A3C988DA88EB88FC884D8C5E8C64
S11302D06F8C78A0A3019201C701B6010E94720B32
S11302E06DA37EA38FA398A78D899E89AF89B88DAE
S11302F089A39AA3ABA3BCA3898C9A8CAB8CBC8C2A
S1130300A5019401BC01CD010E94720B9B01AC01BB
S11303106DA17EA18FA198A50E94940969877A870F
S11303208B879C8729A13AA14BA15CA1C301B2018F
S11303300E94720B2B013C01A5019401C701B60177
S11303400E94720B9B01AC01C301B2010E9493098C
S11303506D877E878F87988B88E0FE013996DE0152
S1130360119601900D928A95E1F729813A814B818A
S11303705C816D817E818F819885A896CDBFDEBF1B
S1130380DF91CF911F910F91FF90EF90DF90CF906D
S1130390BF90AF909F908F907F906F905F904F90A1
S11303A00895CF92DF92EF92FF920F931F93CF9312
S11303B0DF93CDB7DEB76897CDBFDEBF298B3A8B0D
S11303C04B8B5C8B6D8B7E8B8F8B988F6701780149
S11303D069897A898B899C89A70196010E94720B8D
S11303E069877A878B879C872D893E894F89588DA9
S11303F0C701B6010E94720B6D877E878F87988B29
S113040088E0FE013996DE01119601900D928A95DD
S1130410E1F729813A814B815C816D817E818F81F5
S113042098856896CDBFDEBFDF91CF911F910F9164
S1130430FF90EF90DF90CF900895CF92DF92EF92EC
S1130440FF92CF93DF93CDB7DEB76097CDBFDEBF0A
S11304506B017C0120E030E0A9010E946D0B1816AD
S11304608CF4C701B6010E94050A6D877E878F87C9
S1130470988BC701B6010E94DF0B69877A878B8747
S11304809C8710C0C701B6010E94050A6D877E874C
S11304908F87988BC701B6010E94DF0B69877A8723
S11304A08B879C8788E0FE013996DE0111960190C6
S11304B00D928A95E1F729813A814B815C816D81A6
S11304C07E818F8198856096CDBFDEBFDF91CF910D
S11304D0FF90EF90DF90CF900895AF92BF92CF92AC
S11304E0DF92EF92FF920F931F93CF93DF93CDB7D9
S11304F0DEB7A097CDBFDEBF298B3A8B4B8B5C8BCD
S11305006D8B7E8B8F8B988FA98EBA8ECB8EDC8E63
S1130510ED8EFE8E0F8F18A369897A898B899C8949
S1130520298D3A8D4B8D5C8D0E94940969877A8759
S11305308B879C876D897E898F89988D2D8D3E8DC3
S11305404F8D58A10E9494096D877E878F87988B61
S113055088E0FE013996DE01119601900D928A958C
S1130560E1F729813A814B815C816D817E818F81A4
S11305709885A096CDBFDEBFDF91CF911F910F91DB
S1130580FF90EF90DF90CF90BF90AF900895AF921F
S1130590BF92CF92DF92EF92FF920F931F93CF936C
S11305A0DF93CDB7DEB7A097CDBFDEBF298B3A8BE3
S11305B04B8B5C8B6D8B7E8B8F8B988FA98EBA8EB9
S11305C0CB8EDC8EED8EFE8E0F8F18A369897A890F
S11305D08B899C89298D3A8D4B8D5C8D0E94930962
S11305E069877A878B879C876D897E898F89988DA7
S11305F02D8D3E8D4F8D58A10E9493096D877E8766
S11306008F87988B88E0FE013996DE011196019060
S11306100D928A95E1F729813A814B815C816D8144
S11306207E818F819885A096CDBFDEBFDF91CF916B
S11306301F910F91FF90EF90DF90CF90BF90AF90FC
S11306400895CF93DF93EC0180E092E00E943001A3
S1130650FC013197BF0140E050E080E090E01CC015
S113066021E030E0042E02C0220F331F0A94E2F787
S11306702C233D23042E02C0369527950A94E2F7D5
S1130680062E02C0220F331F0A94E2F7822B932B0B
S11306904F5F5F4F61507109E417F50708F7DF9169
S11306A0CF910895EF92FF920F931F93CF93DF930F
S11306B07C01C0E0D0E00CC08E01000F111F0E0DB4
S11306C01F1DCE010E942103F8018083918321968E
S11306D0C115F2E0DF0780F3DF91CF911F910F91F5
S11306E0FF90EF9008956F927F928F929F92AF92B6
S11306F0BF92CF92DF92EF92FF920F931F93CF930B
S1130700DF93CDB7DEB76097CDBFDEBF3C0180E09D
S113071090E0A0E8BFE38D839E83AF83B8871982FE
S11307201A821B821C826BED7FE089E49CEB0E94A1
S11307301D0229873A874B875C876D877E878F8761
S1130740988B812C912C36C0F401EE0FFF1FEE0F15
S1130750FF1FEE0FFF1FE60DF71D8D819E81AF81F8
S1130760B88584839583A683B78389819A81AB8175
S1130770BC8180839183A283B383A984BA84CB840C
S1130780DC84ED84FE840F85188929813A814B81AC
S11307905C816D817E818F8198850E943D012983D2
S11307A03A834B835C836D837E838F8398878FEF3B
S11307B0881A980A8FEF8816910431F228F260960D
S11307C0CDBFDEBFDF91CF911F910F91FF90EF90CE
S11307D0DF90CF90BF90AF909F908F907F906F905D
S11307E008956F927F928F929F92AF92BF92CF9211
S11307F0DF92EF92FF920F931F93CF93DF936C01DD
S11308005B014A01612C712C2FC0F301EE0FFF1F15
S1130810E80DF91DC081D181CC0FDD1FCC0FDD1F88
S1130820CC0FDD1FF301EE0FFF1FEE0FFF1FEA0DCC
S1130830FB1DE080F18002811381CC0DDD1D288138
S113084039814A815B816C817D818E819F810E9487
S1130850D101288339834A835B836C837D838E83B0
S11308609F838FEF681A780A8FEF6816710469F214
S113087060F2612C7724739435C0EE27FF27E619C4
S1130880F709EE0FFF1FE80DF91DFC5FC081D18150
S1130890CC0FDD1FCC0FDD1FCC0FDD1FF301E150AA
S11308A0F04CEE0FFF1FEE0FFF1FEA0DFB1DE08063
S11308B0F18002811381CC0DDD1D288139814A81AB
S11308C05B816C817D818E819F810E94D10128830F
S11308D039834A835B836C837D838E839F8381E02A
S11308E0681A71086114710441F6DF91CF911F9168
S11308F00F91FF90EF90DF90CF90BF90AF909F90BB
S11309008F907F906F9008952F923F924F925F92B5
S11309106F927F928F929F92AF92BF92CF92DF920B
S1130920EF92FF920F931F93CF93DF93CDB7DEB770
S11309306297CDBFDEBF1C016F87788B198A1A8A34
S113094022E030E029873A8780E091E08D879E8716
S1130950D4C080E091E069847A8476946794B3018A
S11309600E947D0C469ED001479EB00D569EB00D50
S11309701124AA0FBB1FAA0FBB1FAA0FBB1FEF8511
S1130980F889AE0FBF1F29853A858B859C85289FE2
S11309904001299F900C389F900C1124F201E60D20
S11309A0F71DE80DF91DEE0FFF1FEE0FFF1FEE0FF1
S11309B0FF1FE20DF31DAC901196BC901197129697
S11309C0CC9012971396DC9013971496EC9014978E
S11309D01596FC90159716960C91169717961C91E0
S11309E0208131814281538164817581868197811F
S11309F00E943D0129833A834B835C836D837E830C
S1130A008F839887840C951C680C791C660C771C62
S1130A10660C771C660C771C620C731C880C991C82
S1130A20880C991C880C991C820C931CA22EB32E42
S1130A30C42ED52EE62EF72E082F192FF40120816F
S1130A4031814281538164817581868197810E94BD
S1130A50C702F30120833183428353836483758304
S1130A6086839783A980BA80CB80DC80ED80FE806A
S1130A700F811885F4012081318142815381648181
S1130A807581868197810E946D02F40120833183F0
S1130A90428353836483758386839783FFEF4F1A5E
S1130AA05F0A02C0412C512C80E091E06D857E8567
S1130AB00E947D0C4616570608F44BCF2B853C85C7
S1130AC02F5F3F4F2B873C8702C01B861C868D857A
S1130AD09E85EB85FC85E817F90720F329853A857F
S1130AE0220F331F29873A87969587958D879E878E
S1130AF089899A890196898B9A8B80E092E00E9479
S1130B003001E989FA89E817F907F8F26296CDBF4E
S1130B10DEBFDF91CF911F910F91FF90EF90DF9097
S1130B20CF90BF90AF909F908F907F906F905F9089
S1130B304F903F902F9008954F925F926F927F92C3
S1130B40AF92BF92CF92DF92EF92FF920F931F93D7
S1130B50CF93DF935C01C0E0D0E06CC08E01000F46
S1130B60111F000F111F0A0D1B1DBE0180E090E034
S1130B700E947C0A6B017C012BED3FE049EC50E4C0
S1130B800E94720B20E030E040E05BE30E94720BB5
S1130B900E94050A26E231E04AEF5EE30E94720BEE
S1130BA09B01AC0164E17EEA87EB9EE30E9493091A
S1130BB02B013C012BED3FE049E451E4C701B601B0
S1130BC00E94720B20E030E040E05BE30E94720B75
S1130BD00E94050A24EB3BEA40E15EE30E94720BAB
S1130BE09B01AC01C301B2010E9494092B013C0199
S1130BF024EE3BEC46E951E4C701B6010E94720BB6
S1130C0020E030E040E05BE30E94720B0E94050AA2
S1130C1029E73DE54FE35CE30E94720B9B01AC01C5
S1130C20C301B2010E949309F80160837183828336
S1130C3093832196CF3FD10509F008F48FCFDF913C
S1130C40CF911F910F91FF90EF90DF90CF90BF90C5
S1130C50AF907F906F905F904F9008952F923F9246
S1130C604F925F926F927F928F929F92AF92BF92B8
S1130C70CF92DF92EF92FF920F931F93CF93DF9364
S1130C807C016B01C0E0D1E035C01E013A94220C16
S1130C90331C220C331C2C0C3D1C8E01000F111F25
S1130CA0000F111F000F111F0E0D1F1DF801608191
S1130CB07181828193819B01AC010E94720B4B0173
S1130CC05C01F80164817581868197819B01AC0187
S1130CD00E94720B2B013C01A3019201C501B401D6
S1130CE00E9494090E94ED0BF10160837183828359
S1130CF093832196C115F2E0DF0738F2C0E0D0E01B
S1130D0035C01E013394220C331C220C331C2C0CD2
S1130D103D1C8E01000F111F000F111F000F111F2A
S1130D200E0D1F1DF80160817181828193819B01E9
S1130D30AC010E94720B4B015C01F8016481758166
S1130D40868197819B01AC010E94720B2B013C01AF
S1130D50A3019201C501B4010E9494090E94ED0B04
S1130D60F10160837183828393832196CF3FD10500
S1130D7041F238F2DF91CF911F910F91FF90EF90E4
S1130D80DF90CF90BF90AF909F908F907F906F90A7
S1130D905F904F903F902F9008958F929F92AF92C3
S1130DA0BF92CF92DF92EF92FF920F931F93CF9354
S1130DB0DF938C01C1E0D0E0E12CF12C1CC0FE01DA
S1130DC0EE0FFF1FEE0FFF1FE00FF11F6081718117
S1130DD082819381F701EE0FFF1FEE0FFF1FE00FDB
S1130DE0F11F20813181428153810E946D0B1816BD
S1130DF00CF47E012196C11582E0D80700F3F701B7
S1130E00EE0FFF1FEE0FFF1FE00FF11F60817181D6
S1130E108281938120E030E44CE155E40E94000A91
S1130E2088231CF4E12CFF24F394FA94B701660F91
S1130E30771F660F771F660F771F6E0D7F1D072EB6
S1130E40000C880B990B0E947E0A6B017C0125E142
S1130E5039EE4EE85DE40E94720B29EC3EEB43EB65
S1130E6050E50E940A0A25E139EE4EE85DE40E944D
S1130E7093094B015C0129EC3EEB43EB50E5C701C0
S1130E80B6010E940A0A20E030E040E85FE30E94D5
S1130E9094099B01AC01C501B4010E940A0A26E62B
S1130EA036E646E650E40E94720BDF91CF911F9123
S1130EB00F91FF90EF90DF90CF90BF90AF909F90F5
S1130EC08F900895E0E0FAE0108286818C7F86831B
S1130ED010A211A20895E0E0FAE010A211A2868106
S1130EE08C7F8160868386E08083089520E030E0F3
S1130EF004C02091A10A207230E0232BD1F3809307
S1130F00A00A80E090E004C08091A10A807290E081
S1130F10892BD1F3089520E030E004C02091A10A88
S1130F20207830E021153105C9F38091A00A06C06C
S1130F30E0EAFAE02181207830E09081232BC1F7A8
S1130F400895CF93DF9300D01F92CDB7DEB76983A6
S1130F507A838B839C83862F0E9476078A810E94E2
S1130F6076078B810E9476078C810E9476072496EF
S1130F70CDBFDEBFDF91CF9108952F923F924F9264
S1130F805F926F927F928F929F92AF92BF92CF9215
S1130F90DF92EF92FF920F931F93CF93DF935C0145
S1130FA01B014A0128013901A0E0B2E081E08C93E1
S1130FB0E0E4F2E080838C9184608C93808184608F
S1130FC0808316968C9181709681917006C0809171
S1130FD006028170909146029170813011F0913037
S1130FE0B1F700E012E0F80164A175A180E090E09F
S1130FF00E947C0AA30192010E9493092B013C01E7
S1131000C0E4D2E06CA17DA180E090E00E947C0A63
S1131010A70196010E949309880C991CF101E80D1F
S1131020F91DA081B181AA0FBB1FAA0FBB1FAA0F74
S1131030BB1FAA0DBB1D14964D925D926D927C92BE
S1131040179720813181220F331F220F331F220F64
S1131050331FF501E20FF31F60837183828393834F
S1131060F8018681816086838E8181608E83808190
S11310708E7F808388818E7F8883DF91CF911F91BB
S11310800F91FF90EF90DF90CF90BF90AF909F9023
S11310908F907F906F905F904F903F902F90089526
S11310A01F920F920FB60F9211240BB60F92CF928C
S11310B0DF92EF92FF920F931F932F933F934F93DF
S11310C05F936F937F938F939F93AF93BF93EF93AC
S11310D0FF93C0900020D0900120E0900220F09077
S11310E003200091042010910520209106203091C6
S11310F0072040910B2050910C206DE074E48DE0AA
S113110094E30E94BD0780910B2090910C200196DE
S113111080930B2090930C20FF91EF91BF91AF919E
S11311209F918F917F916F915F914F913F912F91FB
S11311301F910F91FF90EF90DF90CF900F900BBE17
S11311400F900FBE0F901F9018950E9429090E94BE
S11311503B090E9412090E9446090E9454090E94F8
S11311608C097894E0EAF0E08281816082838DE0EA
S113117090E20E9473038DE094E40E9452038DE098
S113118098E20E949C05809108208130D1F40E944D
S11311908B07813019F0823041F00EC01092082084
S11311A010920A200E946B070CC010920820109223
S11311B00A200E946B0705C081E0809308201092EA
S11311C00A2080910B2090910C2081159240D9F631
S11311D00E9462074DE054E46DE078E28DE094E310
S11311E00E94F1036DE070E28DE094E30E948404B8
S11311F06DE07CE28DE094E30E942E068DE09CE29B
S11312000E94CD060E94A10710920B2010920C2080
S113121081E0809308206BE573ED8CEF9DE30E94E1
S1131220A107B1CF84E08093820688E08093810691
S113123080938506E0EAFAE08781806D8783868162
S113124083688683858183608583848188618483C0
S11312500895E0E5F0E08081826080838091510010
S113126081FFFCCF88ED84BFE0E4F0E081E080837F
S1131270118211820895E0E0FAE01182108281E087
S1131280868389E190E086A397A30895E1E0F6E0E0
S113129080E880838093050680E18093810682E064
S11312A0808380930606089581E0809302068093EC
S11312B02206A0E0B2E083E014968C931497E0E455
S11312C0F2E0848312968C91129712968C93129763
S11312D08281828312968C911297806112968C93EC
S11312E0129782818061828390968C91909781601D
S11312F090968C93909780A1816080A391968C9115
S11313009197876091968C93919781A1876081A32F
S113131091961C9211A20895E0E2F3E012821182E8
S113132085E0808308955058BB27AA270E94AB0903
S11313300C941F0B0E94E60A38F00E94ED0A20F07C
S113134039F49F3F19F426F40C94E30A0EF4E09563
S1131350E7FB0C94DD0AE92F0E94440B58F3BA17FB
S1131360620773078407950720F079F4A6F50C94B7
S1131370660B0EF4E0950B2EBA2FA02D0B01B901CC
S113138090010C01CA01A0011124FF27591B99F0F7
S1131390593F50F4503E68F11A16F040A22F232F03
S11313A0342F4427585FF3CF469537952795A79553
S11313B0F0405395C9F77EF41F16BA0B620B730BFA
S11313C0840BBAF09150A1F0FF0FBB1F661F771F6B
S11313D0881FC2F70EC0BA0F621F731F841F48F420
S11313E0879577956795B795F7959E3F08F0B0CFA9
S11313F09395880F08F09927EE0F97958795089590
S11314000E94B90A08F481E008950E94F60AE3955F
S11314100C94300B0E941E0A0C941F0B0E94ED0AC0
S113142058F00E94E60A40F029F45F3F29F00C943A
S1131430DD0A51110C94670B0C94E30A0E94440BCF
S113144068F39923B1F3552391F3951B550BBB27EF
S1131450AA2762177307840738F09F5F5F4F220F34
S1131460331F441FAA1FA9F335D00E2E3AF0E0E82B
S113147032D091505040E695001CCAF72BD0FE2F75
S113148029D0660F771F881FBB1F26173707480709
S1131490AB07B0E809F0BB0B802DBF01FF279358C1
S11314A05F4F3AF09E3F510578F00C94DD0A0C949E
S11314B0670B5F3FE4F3983ED4F386957795679581
S11314C0B795F7959F5FC9F7880F911D96958795F6
S11314D097F90895E1E0660F771F881FBB1F621715
S11314E073078407BA0720F0621B730B840BBA0BD3
S11314F0EE1F88F7E0950895E89409C097FB3EF441
S113150090958095709561957F4F8F4F9F4F99234C
S1131510A9F0F92F96E9BB279395F69587957795CA
S11315206795B795F111F8CFFAF4BB0F11F460FF8A
S11315301BC06F5F7F4F8F4F9F4F16C0882311F0E2
S113154096E911C0772321F09EE8872F762F05C0F6
S1131550662371F096E8862F70E060E02AF09A9591
S1131560660F771F881FDAF7880F9695879597F986
S11315700895990F0008550FAA0BE0E8FEEF161620
S11315801706E807F907C0F012161306E407F50773
S113159098F0621B730B840B950B39F40A2661F0E7
S11315A0232B242B252B21F408950A2609F4A1408A
S11315B0A6958FEF811D811D089597F99F6780E897
S11315C070E060E008959FEF80EC089500240A9491
S11315D01616170618060906089500240A9412160A
S11315E013061406050608950C94E30A0E944C0B96
S11315F0D8F3E894E0E0BB279F57F0F02AED3FE0F2
S113160049EC06C0EE0FBB0F661F771F881F28F03A
S1131610B23A62077307840728F0B25A620B730B5D
S1131620840BE3959A9572F7803830F49A95BB0F42
S1131630661F771F881FD2F790480C942F0C092E31
S11316400394000C11F4882352F0BB0F40F4BF2B19
S113165011F460FF04C06F5F7F4F8F4F9F4F089559
S1131660EF93E0FF07C0A2EA2AED3FE049EC5FEB0D
S11316700E94AB090E941F0B0F90039401FC905829
S1131680ECEFF1E00C94420C57FD9058440F551FB9
S113169059F05F3F71F04795880F97FB991F61F0F0
S11316A09F3F79F087950895121613061406551F67
S11316B0F2CF4695F1DF08C0161617061806991FD3
S11316C0F1CF86957105610508940895E894BB27C8
S11316D066277727CB0197F908950E94B90A08F481
S11316E08FEF08950E94850B0C941F0B0E94E60A4D
S11316F038F00E94ED0A20F0952311F00C94DD0AD5
S11317000C94E30A11240C94670B0E94440B70F3AD
S1131710959FC1F3950F50E0551F629FF001729F92
S1131720BB27F00DB11D639FAA27F00DB11DAA1FA1
S1131730649F6627B00DA11D661F829F2227B00DEE
S1131740A11D621F739FB00DA11D621F839FA00D79
S1131750611D221F749F3327A00D611D231F849FC9
S1131760600D211D822F762F6A2F11249F57504020
S11317709AF0F1F088234AF0EE0FFF1FBB1F661F9B
S1131780771F881F91505040A9F79E3F510580F064
S11317900C94DD0A0C94670B5F3FE4F3983ED4F39A
S11317A0869577956795B795F795E7959F5FC1F708
S11317B0FE2B880F911D9695879597F908959F9311
S11317C00E94F60A0F9007FCEE5F0C94300B19F49C
S11317D016F40C94E30A0C942D0C0E944C0BB8F3F1
S11317E09923C9F3B6F39F57550B87FF0E943B0C0F
S11317F00024A0E640EA900180585695979528F475
S1131800805C660F771F881F20F02617370748076C
S113181030F4621B730B840B202931294A2BA695C3
S113182017940794202531254A2758F7660F771F08
S1131830881F20F026173707480730F4620B730B14
S1131840840B200D311D411DA09581F7B901842F12
S11318509158880F9695879508959F3F31F0915040
S113186020F4879577956795B795880F911D969580
S1131870879597F9089591505040660F771F881FF8
S1131880D2F708959F938F937F936F93FF93EF9372
S11318909B01AC010E94720BEF91FF910E94560CC8
S11318A02F913F914F915F910C94720BDF93CF93E3
S11318B01F930F93FF92EF92DF927B018C01689448
S11318C006C0DA2EEF010E94850BFE01E894A59173
S11318D02591359145915591A6F3EF010E94AB09ED
S11318E0FE019701A801DA9469F7DF90EF90FF9069
S11318F00F911F91CF91DF910895AA1BBB1B51E15A
S113190007C0AA1FBB1FA617B70710F0A61BB70B6B
S1131910881F991F5A95A9F780959095BC01CD0110
S10919200895F894FFCFC6
S10D192600705A4500705A45010094
S9030000FC
