S018000052616461725F4154584D3235364133552E7372656323
S11300000C94FE000C941F010C941F010C941F010E
S11300100C941F010C941F010C941F010C941F01DC
S11300200C941F010C941F010C941F010C941F01CC
S11300300C941F010C941F010C941F010C941F01BC
S11300400C941F010C941F010C941F010C941F01AC
S11300500C941F010C941F010C941F010C941F019C
S11300600C941F010C941F010C941F010C941F018C
S11300700C941F010C941F010C941F010C941F017C
S11300800C941F010C941F010C941F010C941F016C
S11300900C941F010C941F010C941F010C941F015C
S11300A00C941F010C941F010C941F010C941F014C
S11300B00C941F010C941F010C941F010C9421013A
S11300C00C941F010C941F010C941F010C941F012C
S11300D00C941F010C941F010C941F010C941F011C
S11300E00C941F010C941F010C941F010C941F010C
S11300F00C941F010C941F010C941F010C941F01FC
S11301000C941F010C941F010C941F010C941F01EB
S11301100C941F010C941F010C941F010C941F01DB
S11301200C941F010C941F010C941F010C941F01CB
S11301300C941F010C941F010C941F010C941F01BB
S11301400C941F010C941F010C941F010C941F01AB
S11301500C941F010C941F010C941F010C941F019B
S11301600C941F010C941F010C941F010C941F018B
S11301700C941F010C941F010C941F010C941F017B
S11301800C941F010C941F010C941F010C941F016B
S11301900C941F010C941F010C941F010C941F015B
S11301A00C941F010C941F010C941F010C941F014B
S11301B00C941F010C941F010C941F010C941F013B
S11301C00C941F010C941F010C941F010C941F012B
S11301D00C941F010C941F010C941F010C941F011B
S11301E00C941F010C941F010C941F010C941F010B
S11301F00C941F010C941F010C941F0111241FBEA9
S1130200CFEFCDBFDFE5DEBF00E00CBF10E2A0E022
S1130210B0E2E6E7F3E000E00BBF02C007900D9206
S1130220A030B107D9F720E2A0E0B0E201C01D92EE
S1130230A030B207E1F70E942B010C94B9010C9491
S113024000001F920F920FB60F9211240F900FBE51
S11302500F901F9018950E9455010E9467010E94FB
S11302603E010E9471010E947A010E94B2017894B9
S1130270E0EAF0E0828181608283FFCF84E08093B2
S1130280820688E08093810680938506E0EAFAE09E
S11302908781806D87838681836886838581836077
S11302A085838481886184830895E0E5F0E080811A
S11302B0826080838091510081FFFCCF88ED84BFF0
S11302C0E0E4F0E081E08083118211820895E0E0AF
S11302D0FAE01182108281E086838FEF86A387A3E0
S11302E0089580E8809301068093050680E1809359
S11302F08106089581E08093020680932206A0E09F
S1130300B2E083E014968C931497E0E4F2E08483E3
S113031012968C91129712968C93129782818283F3
S113032012968C911297806112968C931297828107
S11303308061828390968C919097816090968C9343
S1130340909780A1816080A391968C91919787600A
S113035091968C93919781A1876081A391961C9229
S113036011A20895E0E2F3E01282118285E0808315
S10903700895F894FFCF8C
S9030000FC
