:100000000C940D010C942E010C942E010C942E01D5
:100010000C942E010C942E010C942E010C942E01A4
:100020000C942E010C942E010C942E010C942E0194
:100030000C942E010C942E010C942E010C942E0184
:100040000C942E010C942E010C942E010C942E0174
:100050000C942E010C942E010C942E010C942E0164
:100060000C942E010C942E010C942E010C942E0154
:100070000C942E010C942E010C942E010C942E0144
:100080000C942E010C942E010C942E010C942E0134
:100090000C942E010C942E010C942E010C942E0124
:1000A0000C942E010C942E010C942E010C942E0114
:1000B0000C942E010C942E010C942E010C944A08E1
:1000C0000C942E010C942E010C942E010C942E01F4
:1000D0000C942E010C942E010C942E010C942E01E4
:1000E0000C942E010C942E010C942E010C942E01D4
:1000F0000C942E010C942E010C942E010C942E01C4
:100100000C942E010C942E010C942E010C942E01B3
:100110000C942E010C942E010C942E010C942E01A3
:100120000C942E010C942E010C942E010C942E0193
:100130000C942E010C942E010C942E010C942E0183
:100140000C942E010C942E010C942E010C942E0173
:100150000C942E010C942E010C942E010C942E0163
:100160000C942E010C942E010C942E010C942E0153
:100170000C942E010C942E010C942E010C942E0143
:100180000C942E010C942E010C942E010C942E0133
:100190000C942E010C942E010C942E010C942E0123
:1001A0000C942E010C942E010C942E010C942E0113
:1001B0000C942E010C942E010C942E010C942E0103
:1001C0000C942E010C942E010C942E010C942E01F3
:1001D0000C942E010C942E010C942E010C942E01E3
:1001E0000C942E010C942E010C942E010C942E01D3
:1001F0000C942E010C942E010C942E0105A84CCDCC
:10020000B2D44EB93836A9020C50B9918688083C50
:10021000A6AAAA2ABE000000803F11241FBECFEF6D
:10022000CDBFDFE5DEBF00E00CBF10E2A0E0B0E232
:10023000EAEAFAE100E00BBF02C007900D92AE308F
:10024000B107D9F728E4AEE0B0E201C01D92A131B8
:10025000B207E1F70E949F080C94530D0C94000024
:10026000AC0121E030E080E090E003C0220F331FBA
:10027000019624173507D0F308954F925F926F923D
:100280007F928F929F92AF92BF92CF92DF92EF9226
:10029000FF920F931F93CF93DF93CDB7DEB7A8974D
:1002A000CDBFDEBF298B3A8B4B8B5C8B6D8B7E8BEE
:1002B0008F8B988FA98EBA8ECB8EDC8EED8EFE8EB4
:1002C0000F8F18A3C988DA88EB88FC884D8C5E8C68
:1002D0006F8C78A0A3019201C701B6010E94770B31
:1002E0006DA37EA38FA398A78D899E89AF89B88DB2
:1002F00089A39AA3ABA3BCA3898C9A8CAB8CBC8C2E
:10030000A5019401BC01CD010E94770B9B01AC01BA
:100310006DA17EA18FA198A50E94990969877A870E
:100320008B879C8729A13AA14BA15CA1C301B20193
:100330000E94770B2B013C01A5019401C701B60176
:100340000E94770B9B01AC01C301B2010E94980986
:100350006D877E878F87988B88E0FE013996DE0156
:10036000119601900D928A95E1F729813A814B818E
:100370005C816D817E818F819885A896CDBFDEBF1F
:10038000DF91CF911F910F91FF90EF90DF90CF9071
:10039000BF90AF909F908F907F906F905F904F90A5
:1003A0000895CF92DF92EF92FF920F931F93CF9316
:1003B000DF93CDB7DEB76897CDBFDEBF298B3A8B11
:1003C0004B8B5C8B6D8B7E8B8F8B988F670178014D
:1003D00069897A898B899C89A70196010E94770B8C
:1003E00069877A878B879C872D893E894F89588DAD
:1003F000C701B6010E94770B6D877E878F87988B28
:1004000088E0FE013996DE01119601900D928A95E1
:10041000E1F729813A814B815C816D817E818F81F9
:1004200098856896CDBFDEBFDF91CF911F910F9168
:10043000FF90EF90DF90CF900895CF92DF92EF92F0
:10044000FF92CF93DF93CDB7DEB76097CDBFDEBF0E
:100450006B017C0120E030E0A9010E94720B1816AC
:100460008CF4C701B6010E940A0A6D877E878F87C8
:10047000988BC701B6010E94E40B69877A878B8746
:100480009C8710C0C701B6010E940A0A6D877E874B
:100490008F87988BC701B6010E94E40B69877A8722
:1004A0008B879C8788E0FE013996DE0111960190CA
:1004B0000D928A95E1F729813A814B815C816D81AA
:1004C0007E818F8198856096CDBFDEBFDF91CF9111
:1004D000FF90EF90DF90CF900895AF92BF92CF92B0
:1004E000DF92EF92FF920F931F93CF93DF93CDB7DD
:1004F000DEB7A097CDBFDEBF298B3A8B4B8B5C8BD1
:100500006D8B7E8B8F8B988FA98EBA8ECB8EDC8E67
:10051000ED8EFE8E0F8F18A369897A898B899C894D
:10052000298D3A8D4B8D5C8D0E94990969877A8758
:100530008B879C876D897E898F89988D2D8D3E8DC7
:100540004F8D58A10E9499096D877E878F87988B60
:1005500088E0FE013996DE01119601900D928A9590
:10056000E1F729813A814B815C816D817E818F81A8
:100570009885A096CDBFDEBFDF91CF911F910F91DF
:10058000FF90EF90DF90CF90BF90AF900895AF9223
:10059000BF92CF92DF92EF92FF920F931F93CF9370
:1005A000DF93CDB7DEB7A097CDBFDEBF298B3A8BE7
:1005B0004B8B5C8B6D8B7E8B8F8B988FA98EBA8EBD
:1005C000CB8EDC8EED8EFE8E0F8F18A369897A8913
:1005D0008B899C89298D3A8D4B8D5C8D0E94980961
:1005E00069877A878B879C876D897E898F89988DAB
:1005F0002D8D3E8D4F8D58A10E9498096D877E8765
:100600008F87988B88E0FE013996DE011196019064
:100610000D928A95E1F729813A814B815C816D8148
:100620007E818F819885A096CDBFDEBFDF91CF916F
:100630001F910F91FF90EF90DF90CF90BF90AF9000
:100640000895CF93DF93EC0180E092E00E943001A7
:10065000FC013197BF0140E050E080E090E01CC019
:1006600021E030E0042E02C0220F331F0A94E2F78B
:100670002C233D23042E02C0369527950A94E2F7D9
:10068000062E02C0220F331F0A94E2F7822B932B0F
:100690004F5F5F4F61507109E417F50708F7DF916D
:1006A000CF910895EF92FF920F931F93CF93DF9313
:1006B0007C01C0E0D0E00CC08E01000F111F0E0DB8
:1006C0001F1DCE010E942103F80180839183219692
:1006D000C115F2E0DF0780F3DF91CF911F910F91F9
:1006E000FF90EF9008956F927F928F929F92AF92BA
:1006F000BF92CF92DF92EF92FF920F931F93CF930F
:10070000DF93CDB7DEB76097CDBFDEBF3C0180E0A1
:1007100090E0A0E8BFE38D839E83AF83B887198202
:100720001A821B821C826BED7FE089E49CEB0E94A5
:100730001D0229873A874B875C876D877E878F8765
:10074000988B812C912C36C0F401EE0FFF1FEE0F19
:10075000FF1FEE0FFF1FE60DF71D8D819E81AF81FC
:10076000B88584839583A683B78389819A81AB8179
:10077000BC8180839183A283B383A984BA84CB8410
:10078000DC84ED84FE840F85188929813A814B81B0
:100790005C816D817E818F8198850E943D012983D6
:1007A0003A834B835C836D837E838F8398878FEF3F
:1007B000881A980A8FEF8816910431F228F2609611
:1007C000CDBFDEBFDF91CF911F910F91FF90EF90D2
:1007D000DF90CF90BF90AF909F908F907F906F9061
:1007E00008956F927F928F929F92AF92BF92CF9215
:1007F000DF92EF92FF920F931F93CF93DF936C01E1
:100800005B014A01612C712C2FC0F301EE0FFF1F19
:10081000E80DF91DC081D181CC0FDD1FCC0FDD1F8C
:10082000CC0FDD1FF301EE0FFF1FEE0FFF1FEA0DD0
:10083000FB1DE080F18002811381CC0DDD1D28813C
:1008400039814A815B816C817D818E819F810E948B
:10085000D101288339834A835B836C837D838E83B4
:100860009F838FEF681A780A8FEF6816710469F218
:1008700060F2612C7724739435C0EE27FF27E619C8
:10088000F709EE0FFF1FE80DF91DFC5FC081D18154
:10089000CC0FDD1FCC0FDD1FCC0FDD1FF301E150AE
:1008A000F04CEE0FFF1FEE0FFF1FEA0DFB1DE08067
:1008B000F18002811381CC0DDD1D288139814A81AF
:1008C0005B816C817D818E819F810E94D101288313
:1008D00039834A835B836C837D838E839F8381E02E
:1008E000681A71086114710441F6DF91CF911F916C
:1008F0000F91FF90EF90DF90CF90BF90AF909F90BF
:100900008F907F906F9008952F923F924F925F92B9
:100910006F927F928F929F92AF92BF92CF92DF920F
:10092000EF92FF920F931F93CF93DF93CDB7DEB774
:100930006297CDBFDEBF1C016F87788B198A1A8A38
:1009400022E030E029873A8780E091E08D879E871A
:10095000D4C080E091E069847A8476946794B3018E
:100960000E94820C469ED001479EB00D569EB00D4F
:100970001124AA0FBB1FAA0FBB1FAA0FBB1FEF8515
:10098000F889AE0FBF1F29853A858B859C85289FE6
:100990004001299F900C389F900C1124F201E60D24
:1009A000F71DE80DF91DEE0FFF1FEE0FFF1FEE0FF5
:1009B000FF1FE20DF31DAC901196BC90119712969B
:1009C000CC9012971396DC9013971496EC90149792
:1009D0001596FC90159716960C91169717961C91E4
:1009E0002081318142815381648175818681978123
:1009F0000E943D0129833A834B835C836D837E8310
:100A00008F839887840C951C680C791C660C771C66
:100A1000660C771C660C771C620C731C880C991C86
:100A2000880C991C880C991C820C931CA22EB32E46
:100A3000C42ED52EE62EF72E082F192FF401208173
:100A400031814281538164817581868197810E94C1
:100A5000C702F30120833183428353836483758308
:100A600086839783A980BA80CB80DC80ED80FE806E
:100A70000F811885F4012081318142815381648185
:100A80007581868197810E946D02F40120833183F4
:100A9000428353836483758386839783FFEF4F1A62
:100AA0005F0A02C0412C512C80E091E06D857E856B
:100AB0000E94820C4616570608F44BCF2B853C85C6
:100AC0002F5F3F4F2B873C8702C01B861C868D857E
:100AD0009E85EB85FC85E817F90720F329853A8583
:100AE000220F331F29873A87969587958D879E8792
:100AF00089899A890196898B9A8B80E092E00E947D
:100B00003001E989FA89E817F907F8F26296CDBF52
:100B1000DEBFDF91CF911F910F91FF90EF90DF909B
:100B2000CF90BF90AF909F908F907F906F905F908D
:100B30004F903F902F9008954F925F926F927F92C7
:100B4000AF92BF92CF92DF92EF92FF920F931F93DB
:100B5000CF93DF935C01C0E0D0E06CC08E01000F4A
:100B6000111F000F111F0A0D1B1DBE0180E090E038
:100B70000E94810A6B017C012BED3FE049EC50E4BF
:100B80000E94770B20E030E040E05BE30E94770BAF
:100B90000E940A0A26E231E04AEF5EE30E94770BE8
:100BA0009B01AC0164E17EEA87EB9EE30E94980919
:100BB0002B013C012BED3FE049E451E4C701B601B4
:100BC0000E94770B20E030E040E05BE30E94770B6F
:100BD0000E940A0A24EB3BEA40E15EE30E94770BA5
:100BE0009B01AC01C301B2010E9499092B013C0198
:100BF00024EE3BEC46E951E4C701B6010E94770BB5
:100C000020E030E040E05BE30E94770B0E940A0A9C
:100C100029E73DE54FE35CE30E94770B9B01AC01C4
:100C2000C301B2010E949809F80160837183828335
:100C300093832196CF3FD10509F008F48FCFDF9140
:100C4000CF911F910F91FF90EF90DF90CF90BF90C9
:100C5000AF907F906F905F904F9008952F923F924A
:100C60004F925F926F927F928F929F92AF92BF92BC
:100C7000CF92DF92EF92FF920F931F93CF93DF9368
:100C80007C016B01C0E0D1E035C01E013A94220C1A
:100C9000331C220C331C2C0C3D1C8E01000F111F29
:100CA000000F111F000F111F0E0D1F1DF801608195
:100CB0007181828193819B01AC010E94770B4B0172
:100CC0005C01F80164817581868197819B01AC018B
:100CD0000E94770B2B013C01A3019201C501B401D5
:100CE0000E9499090E94F20BF10160837183828353
:100CF00093832196C115F2E0DF0738F2C0E0D0E01F
:100D000035C01E013394220C331C220C331C2C0CD6
:100D10003D1C8E01000F111F000F111F000F111F2E
:100D20000E0D1F1DF80160817181828193819B01ED
:100D3000AC010E94770B4B015C01F8016481758165
:100D4000868197819B01AC010E94770B2B013C01AE
:100D5000A3019201C501B4010E9499090E94F20BFE
:100D6000F10160837183828393832196CF3FD10504
:100D700041F238F2DF91CF911F910F91FF90EF90E8
:100D8000DF90CF90BF90AF909F908F907F906F90AB
:100D90005F904F903F902F900895EF92FF920F93A6
:100DA0001F93CF93DF938C01C1E0D0E0E12CF12CB5
:100DB0001CC0FE01EE0FFF1FEE0FFF1FE00FF11F23
:100DC0006081718182819381F701EE0FFF1FEE0F29
:100DD000FF1FE00FF11F20813181428153810E946A
:100DE000720B18160CF47E012196C11582E0D8070B
:100DF00000F3F701EE0FFF1FEE0FFF1FE00FF11FD3
:100E0000608171818281938120E030E44CE155E47E
:100E10000E94050A88231CF4E12CFF24F394B701F7
:100E20007A95072E000C880B990B0E94830A20E00C
:100E300030E44CE151E40E94770B25E139EE4EE8B5
:100E40005DE40E94770B29EC3EEB43E351E50E9401
:100E50000F0A26E636E646E650E40E94770BDF915D
:100E6000CF911F910F91FF90EF900895E0E0FAE08D
:100E7000108286818C7F868310A211A20895E0E003
:100E8000FAE010A211A286818C7F8160868386E0C1
:100E90008083089520E030E004C02091A10A2072F0
:100EA00030E0232BD1F38093A00A80E090E004C0CF
:100EB0008091A10A807290E0892BD1F3089520E0FF
:100EC00030E004C02091A10A207830E021153105DE
:100ED000C9F38091A00A06C0E0EAFAE021812078F7
:100EE00030E09081232BC1F70895CF93DF9300D09A
:100EF0001F92CDB7DEB769837A838B839C83862F5D
:100F00000E944A078A810E944A078B810E944A07F1
:100F10008C810E944A072496CDBFDEBFDF91CF911E
:100F200008952F923F924F925F926F927F928F928D
:100F30009F92AF92BF92CF92DF92EF92FF920F9368
:100F40001F93CF93DF935C011B014A0128013901F4
:100F5000A0E0B2E081E08C93E0E4F2E080838C9149
:100F600084608C9380818460808316968C918170DC
:100F70009681917006C08091060281709091460220
:100F80009170813011F09130B1F700E012E0F8017A
:100F900064A175A180E090E00E94810AA301920102
:100FA0000E9498092B013C01C0E4D2E06CA17DA114
:100FB00080E090E00E94810AA70196010E949809B2
:100FC000880C991CF101E80DF91DA081B181AA0FCF
:100FD000BB1FAA0FBB1FAA0FBB1FAA0DBB1D1496D8
:100FE0004D925D926D927C92179720813181220FF4
:100FF000331F220F331F220F331FF501E20FF31FA0
:101000006083718382839383F80186818160868304
:101010008E8181608E8380818E7F808388818E7FA8
:101020008883DF91CF911F910F91FF90EF90DF9018
:10103000CF90BF90AF909F908F907F906F905F9078
:101040004F903F902F90089580E090E0DC0103C026
:101050000196A11DB11D811524ED920720E3A20781
:10106000B105B0F3089582E0809305061092200345
:101070000895CF93DF9382E080930606C0E2D3E029
:101080008881856088830E94E10C888F998FDF9129
:10109000CF9108951F920F920FB60F9211240BB6A5
:1010A0000F92CF92DF92EF92FF920F931F932F93A5
:1010B0003F934F935F936F937F938F939F93AF93E0
:1010C000BF93EF93FF93C0900420D0900520E09051
:1010D0000620F0900720009108201091092020910F
:1010E0000A2030910B2040910F205091102061E197
:1010F00074E481E194E30E94910780910F20909124
:101100001020019680930F2090931020FF91EF9173
:10111000BF91AF919F918F917F916F915F914F910F
:101120003F912F911F910F91FF90EF90DF90CF9003
:101130000F900BBE0F900FBE0F901F9018950E943E
:101140002F090E9441090E9418090E944C090E941F
:101150005A090E9492097894E0EAF0E08281816065
:10116000828381E190E20E94730381E194E40E9412
:10117000520381E198E20E949C0580910C2081300D
:1011800021F50E945F0780930E20813019F0823094
:1011900061F016C00E9439080E94240810920C20A9
:1011A00010920E200E943F0710C00E9439080E9432
:1011B000240810920C2010920E200E943F0705C0B8
:1011C00081E080930C2010920E2080910F2090914E
:1011D00010208115924089F60E94360741E154E4BF
:1011E00061E178E281E194E30E94F10361E170E260
:1011F00081E194E30E94840461E17CE281E194E373
:101200000E942E0681E19CE20E94CD060E94750795
:101210000E94330810920F201092102081E08093DA
:101220000C206BE573ED8CEF9DE30E947507A5CF55
:1012300084E08093820688E080938106809385060F
:10124000E0EAFAE08781806D878386818368868300
:101250008581836085838481886184830895E0E546
:10126000F0E08081826080838091510081FFFCCF1B
:1012700088ED84BFE0E4F0E081E080831182118298
:101280000895E0E0FAE01182108281E0868389E12E
:1012900090E086A397A30895E1E0F6E080E88083DC
:1012A0008093050680E18093810682E080838093AD
:1012B0000606089581E08093020680932206A0E04E
:1012C000B2E083E014968C931497E0E4F2E0848318
:1012D00012968C91129712968C9312978281828328
:1012E00012968C911297806112968C93129782813C
:1012F0008061828390968C919097816090968C9378
:10130000909780A1816080A391968C91919787603E
:1013100091968C93919781A1876081A391961C925D
:1013200011A20895E0E2F3E088E08283118208953B
:101330005058BB27AA270E94B0090C94240B0E9486
:10134000EB0A38F00E94F20A20F039F49F3F19F4BA
:1013500026F40C94E80A0EF4E095E7FB0C94E20AFC
:10136000E92F0E94490B58F3BA17620773078407E5
:10137000950720F079F4A6F50C946B0B0EF4E0952C
:101380000B2EBA2FA02D0B01B90190010C01CA013F
:10139000A0011124FF27591B99F0593F50F4503EEA
:1013A00068F11A16F040A22F232F342F4427585FDC
:1013B000F3CF469537952795A795F0405395C9F7F4
:1013C0007EF41F16BA0B620B730B840BBAF09150AC
:1013D000A1F0FF0FBB1F661F771F881FC2F70EC04B
:1013E000BA0F621F731F841F48F48795779567951E
:1013F000B795F7959E3F08F0B0CF9395880F08F00A
:101400009927EE0F9795879508950E94BE0A08F4D4
:1014100081E008950E94FB0AE3950C94350B0E942D
:10142000230A0C94240B0E94F20A58F00E94EB0A43
:1014300040F029F45F3F29F00C94E20A51110C941A
:101440006C0B0C94E80A0E94490B68F39923B1F3E2
:10145000552391F3951B550BBB27AA2762177307DA
:10146000840738F09F5F5F4F220F331F441FAA1F6E
:10147000A9F335D00E2E3AF0E0E832D0915050402A
:10148000E695001CCAF72BD0FE2F29D0660F771FD8
:10149000881FBB1F261737074807AB07B0E809F0BE
:1014A000BB0B802DBF01FF2793585F4F3AF09E3F43
:1014B000510578F00C94E20A0C946C0B5F3FE4F356
:1014C000983ED4F3869577956795B795F7959F5F86
:1014D000C9F7880F911D9695879597F90895E1E0D2
:1014E000660F771F881FBB1F621773078407BA0731
:1014F00020F0621B730B840BBA0BEE1F88F7E0958C
:101500000895E89409C097FB3EF4909580957095F6
:1015100061957F4F8F4F9F4F9923A9F0F92F96E93F
:10152000BB279395F695879577956795B795F111B4
:10153000F8CFFAF4BB0F11F460FF1BC06F5F7F4F51
:101540008F4F9F4F16C0882311F096E911C0772363
:1015500021F09EE8872F762F05C0662371F096E86C
:10156000862F70E060E02AF09A95660F771F881F3B
:10157000DAF7880F9695879597F90895990F0008DF
:10158000550FAA0BE0E8FEEF16161706E807F90755
:10159000C0F012161306E407F50798F0621B730BF0
:1015A000840B950B39F40A2661F0232B242B252B71
:1015B00021F408950A2609F4A140A6958FEF811D14
:1015C000811D089597F99F6780E870E060E00895B5
:1015D0009FEF80EC089500240A941616170618064B
:1015E0000906089500240A94121613061406050627
:1015F00008950C94E80A0E94510BD8F3E894E0E0B7
:10160000BB279F57F0F02AED3FE049EC06C0EE0FF4
:10161000BB0F661F771F881F28F0B23A6207730757
:10162000840728F0B25A620B730B840BE3959A95EA
:1016300072F7803830F49A95BB0F661F771F881FAA
:10164000D2F790480C94340C092E0394000C11F43A
:10165000882352F0BB0F40F4BF2B11F460FF04C08D
:101660006F5F7F4F8F4F9F4F0895EF93E0FF07C04D
:10167000A2EA2AED3FE049EC5FEB0E94B0090E942C
:10168000240B0F90039401FC9058ECEFF1E00C94C4
:10169000470C57FD9058440F551F59F05F3F71F0AC
:1016A0004795880F97FB991F61F09F3F79F08795C9
:1016B0000895121613061406551FF2CF4695F1DF52
:1016C00008C0161617061806991FF1CF86957105E2
:1016D000610508940895E894BB2766277727CB0116
:1016E00097F908950E94BE0A08F48FEF08950E94AA
:1016F0008A0B0C94240B0E94EB0A38F00E94F20A29
:1017000020F0952311F00C94E20A0C94E80A1124BD
:101710000C946C0B0E94490B70F3959FC1F3950FCD
:1017200050E0551F629FF001729FBB27F00DB11D65
:10173000639FAA27F00DB11DAA1F649F6627B00DF5
:10174000A11D661F829F2227B00DA11D621F739FDE
:10175000B00DA11D621F839FA00D611D221F749FEC
:101760003327A00D611D231F849F600D211D822F33
:10177000762F6A2F11249F5750409AF0F1F088235A
:101780004AF0EE0FFF1FBB1F661F771F881F915087
:101790005040A9F79E3F510580F00C94E20A0C944A
:1017A0006C0B5F3FE4F3983ED4F38695779567958D
:1017B000B795F795E7959F5FC1F7FE2B880F911DB1
:1017C0009695879597F908959F930E94FB0A0F902D
:1017D00007FCEE5F0C94350B19F416F40C94E80A30
:1017E0000C94320C0E94510BB8F39923C9F3B6F351
:1017F0009F57550B87FF0E94400C0024A0E640EA4B
:10180000900180585695979528F4805C660F771F55
:10181000881F20F026173707480730F4621B730B28
:10182000840B202931294A2BA6951794079420254B
:1018300031254A2758F7660F771F881F20F0261793
:101840003707480730F4620B730B840B200D311DF2
:10185000411DA09581F7B901842F9158880F969565
:10186000879508959F3F31F0915020F487957795A3
:101870006795B795880F911D9695879597F9089567
:1018800091505040660F771F881FD2F708959F939D
:101890008F937F936F93FF93EF939B01AC010E9413
:1018A000770BEF91FF910E945B0C2F913F914F912D
:1018B0005F910C94770BDF93CF931F930F93FF925D
:1018C000EF92DF927B018C01689406C0DA2EEF0163
:1018D0000E948A0BFE01E894A591259135914591CE
:1018E0005591A6F3EF010E94B009FE019701A801EE
:1018F000DA9469F7DF90EF90FF900F911F91CF91ED
:10190000DF910895AA1BBB1B51E107C0AA1FBB1F93
:10191000A617B70710F0A61BB70B881F991F5A957B
:10192000A9F780959095BC01CD0108958F929F9263
:10193000AF92BF92CF92DF92EF92FF92CF93DF935D
:10194000EC01688179818A819B816115710581052E
:10195000910521F464E279ED8BE597E02DE133EF19
:1019600041E050E00E94F00C49015A019B01AC019A
:10197000A7EAB1E40E940F0D6B017C01ACEEB4EF5D
:10198000A50194010E941D0DDC01CB018C0D9D1D54
:10199000AE1DBF1DB7FF03C00197A109B0488883E2
:1019A0009983AA83BB839F77DF91CF91FF90EF90BC
:1019B000DF90CF90BF90AF909F908F9008950C9440
:1019C000960C80E090E20C94960CA0E0B0E080933E
:1019D000002090930120A0930220B093032008954B
:1019E000052E97FB1EF400940E94070D57FD07D0AB
:1019F0000E94220D07FC03D04EF40C94070D509565
:101A00004095309521953F4F4F4F5F4F08959095EA
:101A10008095709561957F4F8F4F9F4F08950E94DD
:101A2000440DA59F900DB49F900DA49F800D911D16
:101A300011240895B7FF0C940F0D0E940F0D821B07
:101A4000930B0895A1E21A2EAA1BBB1BFD010DC02A
:101A5000AA1FBB1FEE1FFF1FA217B307E407F5075E
:101A600020F0A21BB30BE40BF50B661F771F881F3A
:101A7000991F1A9469F760957095809590959B01D0
:101A8000AC01BD01CF010895A29FB001B39FC00179
:101A9000A39F700D811D1124911DB29F700D811D9A
:0A1AA0001124911D0895F894FFCF62
:0E1AAA000100000000705A4500705A4501000E
:00000001FF
