:100000000C940D010C942E010C942E010C942E01D5
:100010000C942E010C942E010C942E010C942E01A4
:100020000C942E010C942E010C942E010C942E0194
:100030000C942E010C942E010C942E010C942E0184
:100040000C942E010C942E010C942E010C942E0174
:100050000C942E010C942E010C942E010C942E0164
:100060000C942E010C942E010C942E010C942E0154
:100070000C942E010C942E010C942E010C942E0144
:100080000C942E010C942E010C942E010C942E0134
:100090000C942E010C942E010C942E010C942E0124
:1000A0000C942E010C942E010C942E010C942E0114
:1000B0000C942E010C942E010C942E010C944404EB
:1000C0000C942E010C942E010C942E010C942E01F4
:1000D0000C942E010C942E010C942E010C942E01E4
:1000E0000C942E010C942E010C942E010C942E01D4
:1000F0000C942E010C942E010C942E010C942E01C4
:100100000C942E010C942E010C942E010C942E01B3
:100110000C942E010C942E010C942E010C942E01A3
:100120000C942E010C942E010C942E010C942E0193
:100130000C942E010C942E010C942E010C942E0183
:100140000C942E010C942E010C942E010C942E0173
:100150000C942E010C942E010C942E010C942E0163
:100160000C942E010C942E010C942E010C942E0153
:100170000C942E010C942E010C942E010C942E0143
:100180000C942E010C942E010C942E010C942E0133
:100190000C942E010C942E010C942E010C942E0123
:1001A0000C942E010C942E010C942E010C942E0113
:1001B0000C942E010C942E010C942E010C942E0103
:1001C0000C942E010C942E010C942E010C942E01F3
:1001D0000C942E010C942E010C942E010C942E01E3
:1001E0000C942E010C942E010C942E010C942E01D3
:1001F0000C942E010C942E010C942E0105A84CCDCC
:10020000B2D44EB93836A9020C50B9918688083C50
:10021000A6AAAA2ABE000000803F11241FBECFEF6D
:10022000CDBFDFE5DEBF00E00CBF20E2A6E0B0E21C
:1002300001C01D92A431B207E1F710E2A0E0B0E2E4
:10024000E8E0F1E100E00BBF02C007900D92A6309C
:10025000B107D9F70E9481040C9482080C94000025
:10026000AC0121E030E080E090E003C0220F331FBA
:10027000019624173507D0F308954F925F926F923D
:100280007F928F929F92AF92BF92CF92DF92EF9226
:10029000FF920F931F93CF93DF93CDB7DEB7A8974D
:1002A000CDBFDEBF298B3A8B4B8B5C8B6D8B7E8BEE
:1002B0008F8B988FA98EBA8ECB8EDC8EED8EFE8EB4
:1002C0000F8F18A3C988DA88EB88FC884D8C5E8C68
:1002D0006F8C78A0A3019201C701B6010E947F062E
:1002E0006DA37EA38FA398A78D899E89AF89B88DB2
:1002F00089A39AA3ABA3BCA3898C9A8CAB8CBC8C2E
:10030000A5019401BC01CD010E947F069B01AC01B7
:100310006DA17EA18FA198A50E943C0569877A876F
:100320008B879C8729A13AA14BA15CA1C301B20193
:100330000E947F062B013C01A5019401C701B60173
:100340000E947F069B01AC01C301B2010E943B05E4
:100350006D877E878F87988B88E0FE013996DE0156
:10036000119601900D928A95E1F729813A814B818E
:100370005C816D817E818F819885A896CDBFDEBF1F
:10038000DF91CF911F910F91FF90EF90DF90CF9071
:10039000BF90AF909F908F907F906F905F904F90A5
:1003A0000895CF92DF92EF92FF92CF93DF93CDB774
:1003B000DEB76097CDBFDEBF6B017C0120E030E08F
:1003C000A9010E947A0618168CF4C701B6010E9492
:1003D000A8056D877E878F87988BC701B6010E941D
:1003E000EC0669877A878B879C8710C0C701B601A6
:1003F0000E94A8056D877E878F87988BC701B601FD
:100400000E94EC0669877A878B879C8788E0FE01CB
:100410003996DE01119601900D928A95E1F72981B6
:100420003A814B815C816D817E818F819885609658
:10043000CDBFDEBFDF91CF91FF90EF90DF90CF90E7
:100440000895CF93DF93EC0180E190E00E943001AA
:10045000FC013197BF0140E050E080E090E01CC01B
:1004600021E030E0042E02C0220F331F0A94E2F78D
:100470002C233D23042E02C0369527950A94E2F7DB
:10048000062E02C0220F331F0A94E2F7822B932B11
:100490004F5F5F4F61507109E417F50708F7DF916F
:1004A000CF910895EF92FF920F931F93CF93DF9315
:1004B00080E290E00E9461077C01C0E0D0E00CC0C7
:1004C0008E01000F111F0E0D1F1DCE010E94210273
:1004D000F801808391832196C031D10588F3C7014B
:1004E000DF91CF911F910F91FF90EF9008956F9240
:1004F0007F928F929F92AF92BF92CF92DF92EF92B4
:10050000FF920F931F93CF93DF93CDB7DEB7609722
:10051000CDBFDEBF80E490E00E9461073C0180E037
:1005200090E0A0E8BFE38D839E83AF83B8871982F4
:100530001A821B821C826BED7FE089EC9EEB0E948D
:10054000D10129873A874B875C876D877E878F87A4
:10055000988B812C912C36C0F401EE0FFF1FEE0F0B
:10056000FF1FEE0FFF1FE60DF71D8D819E81AF81EE
:10057000B88584839583A683B78389819A81AB816B
:10058000BC8180839183A283B383A984BA84CB8402
:10059000DC84ED84FE840F85188929813A814B81A2
:1005A0005C816D817E818F8198850E943D012983C8
:1005B0003A834B835C836D837E838F8398878FEF31
:1005C000881A980A88E08816910430F2C301609670
:1005D000CDBFDEBFDF91CF911F910F91FF90EF90C4
:1005E000DF90CF90BF90AF909F908F907F906F9053
:1005F000089580E890E00E94610708954F925F920D
:100600006F927F92AF92BF92CF92DF92EF92FF9262
:100610000F931F93CF93DF9380E290E00E946107D6
:100620005C01C0E0D0E06CC08E01000F111F000F14
:10063000111F0A0D1B1DBE0180E090E00E94AD0558
:100640006B017C012BED3FE049EC50E40E947F06FA
:1006500020E030E040E85DE30E947F060E94A805AC
:1006600026E231E04AEF5EE30E947F069B01AC0187
:1006700064E17EEA87EB9EE30E943B052B013C018F
:100680002BED3FE049E451E4C701B6010E947F062B
:1006900020E030E040E85DE30E947F060E94A8056C
:1006A00024EB3BEA40E15EE30E947F069B01AC0144
:1006B000C301B2010E943C052B013C0124EE3BEC3E
:1006C00046E951E4C701B6010E947F0620E030E010
:1006D00040E85DE30E947F060E94A80529E73DE50A
:1006E0004FE35CE30E947F069B01AC01C301B201B2
:1006F0000E943B05F8016083718382839383219676
:10070000C830D10508F490CFC501DF91CF911F917A
:100710000F91FF90EF90DF90CF90BF90AF907F90C0
:100720006F905F904F900895E0E0FAE0108286812C
:100730008C7F868310A211A20895E0E0FAE010A257
:1007400011A286818C7F8160868386E080830895F4
:1007500020E030E004C02091A10A207230E0232B79
:10076000D1F38093A00A80E090E004C08091A10AB8
:10077000807290E0892BD1F30895CF93C92F0E9406
:10078000A8038C2F0E94A803CF9108956F927F92A7
:100790008F929F92AF92BF92CF92DF92EF92FF9291
:1007A0000F931F93CF93DF935C013B01EA01A0E01D
:1007B000B2E081E08C93E0E4F2E080838C9184608D
:1007C0008C938081846080838091060280FD04C0C8
:1007D0008091460280FFF8CF812C6894992491F88B
:1007E000F401E4A0F5A06894CC24C6F8DD24D1F887
:1007F000F60104A115A1C7010E94BD03C8010E9412
:10080000BD03CC0FDD1FC60DD71D68807980660C37
:10081000771C660C771C660C771C6A0C7B1CB70176
:1008200080E090E00E94AD05F301648375838683C8
:10083000978388819981880F991F880F991F880F46
:10084000991FE501C80FD91FB80180E090E00E9410
:10085000AD05688379838A839B83F40180818E7FD1
:100860008083F60180818E7F8083DF91CF911F91FD
:100870000F91FF90EF90DF90CF90BF90AF909F903F
:100880008F907F906F9008951F920F920FB60F92E6
:1008900011240BB60F922F933F934F935F936F9357
:1008A0007F938F939F93AF93BF93EF93FF93409169
:1008B00006205091072060910E2070910F208091AA
:1008C0000C2090910D200E94C603809106209091EB
:1008D000072001968093062090930720FF91EF91C7
:1008E000BF91AF919F918F917F916F915F914F9148
:1008F0003F912F910F900BBE0F900FBE0F901F9046
:1009000018950E94D1040E94E3040E94BA040E9438
:10091000EE040E94FC040E9434057894E0EAF0E0C2
:100920008281816082830E94F90280930C209093DF
:100930000D200E94770280930820909309200E9446
:10094000520280930E2090930F200E94FE0280930B
:100950000A2090930B200E949D0380910620909185
:1009600007200F97D1F70E9494031092062010924F
:100970000720F3CF84E08093820688E0809381068D
:1009800080938506E0EAFAE08781806D878386811F
:10099000836886838581836085838481886184837D
:1009A0000895E0E5F0E080818260808380915100CD
:1009B00081FFFCCF88ED84BFE0E4F0E081E080833C
:1009C000118211820895E0E0FAE01182108281E044
:1009D000868389E190E086A397A30895E1E0F6E09D
:1009E00080E880838093050680E18093810682E021
:1009F000808380930606089581E0809302068093A9
:100A00002206A0E0B2E083E014968C931497E0E411
:100A1000F2E0848312968C91129712968C9312971F
:100A20008281828312968C911297806112968C93A8
:100A3000129782818061828390968C9190978160D9
:100A400090968C93909780A1816080A391968C91D1
:100A50009197876091968C93919781A1876081A3EC
:100A600091961C9211A20895E0E2F3E012821182A5
:100A700085E0808308955058BB27AA270E9453051C
:100A80000C942C060E94F30538F00E94FA0520F021
:100A900039F49F3F19F426F40C94F0050EF4E09518
:100AA000E7FB0C94EA05E92F0E94510658F3BA17A8
:100AB000620773078407950720F079F4A6F50C9474
:100AC00073060EF4E0950B2EBA2FA02D0B01B90181
:100AD00090010C01CA01A0011124FF27591B99F0B4
:100AE000593F50F4503E68F11A16F040A22F232FC0
:100AF000342F4427585FF3CF469537952795A79510
:100B0000F0405395C9F77EF41F16BA0B620B730BB6
:100B1000840BBAF09150A1F0FF0FBB1F661F771F27
:100B2000881FC2F70EC0BA0F621F731F841F48F4DC
:100B3000879577956795B795F7959E3F08F0B0CF65
:100B40009395880F08F09927EE0F9795879508954C
:100B50000E940306E3950C943D06E89409C097FBB8
:100B60003EF490958095709561957F4F8F4F9F4F84
:100B70009923A9F0F92F96E9BB279395F6958795C8
:100B800077956795B795F111F8CFFAF4BB0F11F48B
:100B900060FF1BC06F5F7F4F8F4F9F4F16C0882332
:100BA00011F096E911C0772321F09EE8872F762F68
:100BB00005C0662371F096E8862F70E060E02AF0A9
:100BC0009A95660F771F881FDAF7880F9695879595
:100BD00097F9089597F99F6780E870E060E00895BD
:100BE0009FEF80EC089500240A9416161706180645
:100BF0000906089500240A94121613061406050621
:100C000008950C94F0050E945906D8F3E894E0E0AA
:100C1000BB279F57F0F02AED3FE049EC06C0EE0FEE
:100C2000BB0F661F771F881F28F0B23A6207730751
:100C3000840728F0B25A620B730B840BE3959A95E4
:100C400072F7803830F49A95BB0F661F771F881FA4
:100C5000D2F790480C941A07092E0394000C11F453
:100C6000882352F0BB0F40F4BF2B11F460FF04C087
:100C70006F5F7F4F8F4F9F4F0895EF93E0FF07C047
:100C8000A2EA2AED3FE049EC5FEB0E9453050E9487
:100C90002C060F90039401FC9058ECEFF1E00C94BB
:100CA000260757FD9058440F551F59F05F3F71F0CC
:100CB0004795880F97FB991F61F09F3F79F08795C3
:100CC0000895121613061406551FF2CF4695F1DF4C
:100CD00008C0161617061806991FF1CF86957105DC
:100CE000610508940895E894BB2766277727CB0110
:100CF00097F908950E94F40608F48FEF08950E9472
:100D000092060C942C060E94F30538F00E94FA0516
:100D100020F0952311F00C94EA050C94F0051124B1
:100D20000C9474060E94510670F3959FC1F3950FC1
:100D300050E0551F629FF001729FBB27F00DB11D5F
:100D4000639FAA27F00DB11DAA1F649F6627B00DEF
:100D5000A11D661F829F2227B00DA11D621F739FD8
:100D6000B00DA11D621F839FA00D611D221F749FE6
:100D70003327A00D611D231F849F600D211D822F2D
:100D8000762F6A2F11249F5750409AF0F1F0882354
:100D90004AF0EE0FFF1FBB1F661F771F881F915081
:100DA0005040A9F79E3F510580F00C94EA050C9441
:100DB00074065F3FE4F3983ED4F386957795679584
:100DC000B795F795E7959F5FC1F7FE2B880F911DAB
:100DD0009695879597F908959F930E9403060F9023
:100DE00007FCEE5F0C943D06990F0008550FAA0B07
:100DF000E0E8FEEF16161706E807F907C0F012162E
:100E00001306E407F50798F0621B730B840B950B30
:100E100039F40A2661F0232B242B252B21F4089585
:100E20000A2609F4A140A6958FEF811D811D089522
:100E30009F3F31F0915020F4879577956795B7954E
:100E4000880F911D9695879597F908959F938F9395
:100E50007F936F93FF93EF939B01AC010E947F06FA
:100E6000EF91FF910E943A072F913F914F915F912F
:100E70000C947F06DF93CF931F930F93FF92EF9213
:100E8000DF927B018C01689406C0DA2EEF010E948C
:100E90009206FE01E894A5912591359145915591D1
:100EA000A6F3EF010E945305FE019701A801DA9411
:100EB00069F7DF90EF90FF900F911F91CF91DF9135
:100EC00008950F931F93CF93DF938230910510F411
:100ED00082E090E0E0911220F091132020E030E0D9
:100EE000A0E0B0E0309719F1408151810281138177
:100EF00048175907C8F08417950769F4109731F01F
:100F000012960C93129713961C9327C000931220ED
:100F10001093132022C02115310519F042175307F1
:100F200018F49A01BD01EF01DF01F801DBCF2115B3
:100F30003105F9F0281B390B2430310580F48A8102
:100F40009B816115710521F0FB018283938304C0AD
:100F50008093122090931320FE01329644C0FE012C
:100F6000E20FF31F81939193225031092883398333
:100F70003AC02091102030911120232B41F4209170
:100F800002203091032020931020309311202091D3
:100F90000020309101202115310541F42DB73EB7D5
:100FA0004091042050910520241B350BE091102026
:100FB000F0911120E217F307A0F42E1B3F0B281726
:100FC000390778F0AC014E5F5F4F2417350748F0C2
:100FD0004E0F5F1F409310205093112081939193E7
:100FE00002C0E0E0F0E0CF01DF91CF911F910F91BF
:100FF0000895CF93DF93009709F481C0FC013297E5
:1010000012821382A0911220B0911320109781F4C4
:1010100020813181820F931F209110203091112067
:101020002817390751F5E0931020F093112067C07D
:10103000ED0120E030E0CE17DF0740F44A815B810C
:101040009E0141155105F1F0EA01F5CFC283D3832A
:1010500040815181840F951FC817D90759F48881A1
:101060009981840F951F0296808391838A819B8149
:10107000828393832115310529F4E0931220F093A4
:1010800013203DC0E901EA83FB8349915991C40FC4
:10109000D51FEC17FD0761F480819181840F951FA6
:1010A0000296E90188839983828193818A839B8355
:1010B000E0E0F0E012968D919C911397009719F063
:1010C000FD01DC01F7CF8D919C9111979D012E5F61
:1010D0003F4F820F931F209110203091112028172D
:1010E000390769F4309729F41092122010921320D6
:1010F00002C012821382A0931020B0931120DF91BE
:08110000CF910895F894FFCF90
:061108000000142020008D
:00000001FF
