:100000000C940D010C942E010C942E010C942E01D5
:100010000C942E010C942E010C942E010C942E01A4
:100020000C942E010C942E010C942E010C942E0194
:100030000C942E010C942E010C942E010C942E0184
:100040000C942E010C942E010C942E010C942E0174
:100050000C942E010C942E010C942E010C942E0164
:100060000C942E010C942E010C942E010C942E0154
:100070000C942E010C942E010C942E010C942E0144
:100080000C942E010C942E010C942E010C942E0134
:100090000C942E010C942E010C942E010C942E0124
:1000A0000C942E010C942E010C942E010C942E0114
:1000B0000C942E010C942E010C942E010C943407F8
:1000C0000C942E010C942E010C942E010C942E01F4
:1000D0000C942E010C942E010C942E010C942E01E4
:1000E0000C942E010C942E010C942E010C942E01D4
:1000F0000C942E010C942E010C942E010C942E01C4
:100100000C942E010C942E010C942E010C942E01B3
:100110000C942E010C942E010C942E010C942E01A3
:100120000C942E010C942E010C942E010C942E0193
:100130000C942E010C942E010C942E010C942E0183
:100140000C942E010C942E010C942E010C942E0173
:100150000C942E010C942E010C942E010C942E0163
:100160000C942E010C942E010C942E010C942E0153
:100170000C942E010C942E010C942E010C942E0143
:100180000C942E010C942E010C942E010C942E0133
:100190000C942E010C942E010C942E010C942E0123
:1001A0000C942E010C942E010C942E010C942E0113
:1001B0000C942E010C942E010C942E010C942E0103
:1001C0000C942E010C942E010C942E010C942E01F3
:1001D0000C942E010C942E010C942E010C942E01E3
:1001E0000C942E010C942E010C942E010C942E01D3
:1001F0000C942E010C942E010C942E0105A84CCDCC
:10020000B2D44EB93836A9020C50B9918688083C50
:10021000A6AAAA2ABE000000803F11241FBECFEF6D
:10022000CDBFDFE5DEBF00E00CBF20E2A6E0B0E21C
:1002300001C01D92A431B207E1F710E2A0E0B0E2E4
:10024000E0EFF7E100E00BBF02C007900D92A6308F
:10025000B107D9F70E9471070C94F60B0C940000BB
:10026000AC0121E030E080E090E003C0220F331FBA
:10027000019624173507D0F308954F925F926F923D
:100280007F928F929F92AF92BF92CF92DF92EF9226
:10029000FF920F931F93CF93DF93CDB7DEB7A8974D
:1002A000CDBFDEBF298B3A8B4B8B5C8B6D8B7E8BEE
:1002B0008F8B988FA98EBA8ECB8EDC8EED8EFE8EB4
:1002C0000F8F18A3C988DA88EB88FC884D8C5E8C68
:1002D0006F8C78A0A3019201C701B6010E94920918
:1002E0006DA37EA38FA398A78D899E89AF89B88DB2
:1002F00089A39AA3ABA3BCA3898C9A8CAB8CBC8C2E
:10030000A5019401BC01CD010E9492099B01AC01A1
:100310006DA17EA18FA198A50E944F0869877A8759
:100320008B879C8729A13AA14BA15CA1C301B20193
:100330000E9492092B013C01A5019401C701B6015D
:100340000E9492099B01AC01C301B2010E944E08B8
:100350006D877E878F87988B88E0FE013996DE0156
:10036000119601900D928A95E1F729813A814B818E
:100370005C816D817E818F819885A896CDBFDEBF1F
:10038000DF91CF911F910F91FF90EF90DF90CF9071
:10039000BF90AF909F908F907F906F905F904F90A5
:1003A0000895CF92DF92EF92FF920F931F93CF9316
:1003B000DF93CDB7DEB76897CDBFDEBF298B3A8B11
:1003C0004B8B5C8B6D8B7E8B8F8B988F670178014D
:1003D00069897A898B899C89A70196010E94920973
:1003E00069877A878B879C872D893E894F89588DAD
:1003F000C701B6010E9492096D877E878F87988B0F
:1004000088E0FE013996DE01119601900D928A95E1
:10041000E1F729813A814B815C816D817E818F81F9
:1004200098856896CDBFDEBFDF91CF911F910F9168
:10043000FF90EF90DF90CF900895CF92DF92EF92F0
:10044000FF92CF93DF93CDB7DEB76097CDBFDEBF0E
:100450006B017C0120E030E0A9010E948D09181693
:100460008CF4C701B6010E94BB086D877E878F8719
:10047000988BC701B6010E94FF0969877A878B872D
:100480009C8710C0C701B6010E94BB086D877E879C
:100490008F87988BC701B6010E94FF0969877A8709
:1004A0008B879C8788E0FE013996DE0111960190CA
:1004B0000D928A95E1F729813A814B815C816D81AA
:1004C0007E818F8198856096CDBFDEBFDF91CF9111
:1004D000FF90EF90DF90CF900895AF92BF92CF92B0
:1004E000DF92EF92FF920F931F93CF93DF93CDB7DD
:1004F000DEB7A097CDBFDEBF298B3A8B4B8B5C8BD1
:100500006D8B7E8B8F8B988FA98EBA8ECB8EDC8E67
:10051000ED8EFE8E0F8F18A369897A898B899C894D
:10052000298D3A8D4B8D5C8D0E944F0869877A87A3
:100530008B879C876D897E898F89988D2D8D3E8DC7
:100540004F8D58A10E944F086D877E878F87988BAB
:1005500088E0FE013996DE01119601900D928A9590
:10056000E1F729813A814B815C816D817E818F81A8
:100570009885A096CDBFDEBFDF91CF911F910F91DF
:10058000FF90EF90DF90CF90BF90AF900895AF9223
:10059000BF92CF92DF92EF92FF920F931F93CF9370
:1005A000DF93CDB7DEB7A097CDBFDEBF298B3A8BE7
:1005B0004B8B5C8B6D8B7E8B8F8B988FA98EBA8EBD
:1005C000CB8EDC8EED8EFE8E0F8F18A369897A8913
:1005D0008B899C89298D3A8D4B8D5C8D0E944E08AC
:1005E00069877A878B879C876D897E898F89988DAB
:1005F0002D8D3E8D4F8D58A10E944E086D877E87B0
:100600008F87988B88E0FE013996DE011196019064
:100610000D928A95E1F729813A814B815C816D8148
:100620007E818F819885A096CDBFDEBFDF91CF916F
:100630001F910F91FF90EF90DF90CF90BF90AF9000
:100640000895CF93DF93EC0180E092E00E943001A7
:10065000FC013197BF0140E050E080E090E01CC019
:1006600021E030E0042E02C0220F331F0A94E2F78B
:100670002C233D23042E02C0369527950A94E2F7D9
:10068000062E02C0220F331F0A94E2F7822B932B0F
:100690004F5F5F4F61507109E417F50708F7DF916D
:1006A000CF910895EF92FF920F931F93CF93DF9313
:1006B00080E094E00E94D50A7C01C0E0D0E00CC04C
:1006C0008E01000F111F0E0D1F1DCE010E94210370
:1006D000F801808391832196C115F2E0DF0780F352
:1006E000C701DF91CF911F910F91FF90EF90089577
:1006F0006F927F928F929F92AF92BF92CF92DF9232
:10070000EF92FF920F931F93CF93DF93CDB7DEB796
:100710006097CDBFDEBF80E098E00E94D50A3C0123
:1007200080E090E0A0E8BFE38D839E83AF83B8872D
:1007300019821A821B821C826BED7FE089E49CEB9C
:100740000E941D0229873A874B875C876D877E87C9
:100750008F87988B812C912C36C0F401EE0FFF1FF0
:10076000EE0FFF1FEE0FFF1FE60DF71D8D819E811F
:10077000AF81B88584839583A683B78389819A8165
:10078000AB81BC8180839183A283B383A984BA8423
:10079000CB84DC84ED84FE840F85188929813A811D
:1007A0004B815C816D817E818F8198850E943D01A6
:1007B00029833A834B835C836D837E838F83988701
:1007C0008FEF881A980A8FEF8816910431F228F279
:1007D000C3016096CDBFDEBFDF91CF911F910F9116
:1007E000FF90EF90DF90CF90BF90AF909F908F9051
:1007F0007F906F90089580E090E10E94D50A08955F
:100800006F927F928F929F92AF92BF92CF92DF9220
:10081000EF92FF920F931F93CF93DF936C015B01D5
:100820004A01612C712C2FC0F301EE0FFF1FE80D60
:10083000F91DC081D181CC0FDD1FCC0FDD1FCC0F86
:10084000DD1FF301EE0FFF1FEE0FFF1FEA0DFB1D73
:10085000E080F18002811381CC0DDD1D288139817A
:100860004A815B816C817D818E819F810E94D10153
:10087000288339834A835B836C837D838E839F8344
:100880008FEF681A780A8FEF6816710469F260F2C8
:10089000612C7724739435C0EE27FF27E619F709FA
:1008A000EE0FFF1FE80DF91DFC5FC081D181CC0F59
:1008B000DD1FCC0FDD1FCC0FDD1FF301E150F04C2D
:1008C000EE0FFF1FEE0FFF1FEA0DFB1DE080F18012
:1008D00002811381CC0DDD1D288139814A815B8124
:1008E0006C817D818E819F810E94D1012883398313
:1008F0004A835B836C837D838E839F8381E0681A48
:1009000071086114710441F6DF91CF911F910F912D
:10091000FF90EF90DF90CF90BF90AF909F908F901F
:100920007F906F9008952F923F924F925F926F92B7
:100930007F928F929F92AF92BF92CF92DF92EF926F
:10094000FF920F931F93CF93DF93CDB7DEB76297DC
:10095000CDBFDEBF1C016F87788B198A1A8A22E00F
:1009600030E029873A8780E091E08D879E87D4C068
:1009700080E091E069847A8476946794B3010E9460
:10098000C10A469ED001479EB00D569EB00D11245F
:10099000AA0FBB1FAA0FBB1FAA0FBB1FEF85F889A9
:1009A000AE0FBF1F29853A858B859C85289F400106
:1009B000299F900C389F900C1124F201E60DF71D31
:1009C000E80DF91DEE0FFF1FEE0FFF1FEE0FFF1FCB
:1009D000E20DF31DAC901196BC9011971296CC903D
:1009E00012971396DC9013971496EC901497159623
:1009F000FC90159716960C91169717961C912081CE
:100A000031814281538164817581868197810E9401
:100A10003D0129833A834B835C836D837E838F837F
:100A20009887840C951C680C791C660C771C660CE6
:100A3000771C660C771C620C731C880C991C880C44
:100A4000991C880C991C820C931CA22EB32EC42EC8
:100A5000D52EE62EF72E082F192FF4012081318193
:100A60004281538164817581868197810E94C7028A
:100A7000F3012083318342835383648375838683A8
:100A80009783A980BA80CB80DC80ED80FE800F81C7
:100A90001885F401208131814281538164817581FF
:100AA000868197810E946D02F40120833183428305
:100AB00053836483758386839783FFEF4F1A5F0A9E
:100AC00002C0412C512C80E091E06D857E850E9412
:100AD000C10A4616570608F44BCF2B853C852F5F7D
:100AE0003F4F2B873C8702C01B861C868D859E85C9
:100AF000EB85FC85E817F90720F329853A85220F55
:100B0000331F29873A87969587958D879E87898990
:100B10009A890196898B9A8B80E092E00E9430013D
:100B2000E989FA89E817F907F8F26296CDBFDEBFC6
:100B3000DF91CF911F910F91FF90EF90DF90CF90B9
:100B4000BF90AF909F908F907F906F905F904F90ED
:100B50003F902F9008954F925F926F927F92AF9245
:100B6000BF92CF92DF92EF92FF920F931F93CF939A
:100B7000DF9380E094E00E94D50A5C01C0E0D0E001
:100B80006CC08E01000F111F000F111F0A0D1B1DDD
:100B9000BE0180E090E00E94C0086B017C012BED5B
:100BA0003FE049EC50E40E94920920E030E040E050
:100BB0005BE30E9492090E94BB0826E231E04AEF03
:100BC0005EE30E9492099B01AC0164E17EEA87EB3F
:100BD0009EE30E944E082B013C012BED3FE049E4CF
:100BE00051E4C701B6010E94920920E030E040E0E4
:100BF0005BE30E9492090E94BB0824EB3BEA40E1C0
:100C00005EE30E9492099B01AC01C301B2010E9404
:100C10004F082B013C0124EE3BEC46E951E4C701AF
:100C2000B6010E94920920E030E040E05BE30E94C0
:100C300092090E94BB0829E73DE54FE35CE30E946F
:100C400092099B01AC01C301B2010E944E08F80158
:100C500060837183828393832196CF3FD10509F00E
:100C600008F48FCFC501DF91CF911F910F91FF90B5
:100C7000EF90DF90CF90BF90AF907F906F905F909C
:100C80004F9008958F929F92AF92BF92CF92DF9232
:100C9000EF92FF920F931F93CF93DF936C017B0131
:100CA00000E010E027C0E801CC0FDD1FCC0FDD1FF6
:100CB000CC0FDD1FCC0DDD1D688179818A819B8180
:100CC0009B01AC010E9492094B015C016C817D810A
:100CD0008E819F819B01AC010E9492099B01AC0116
:100CE000C501B4010E944F080E940D0A0E94B3067C
:100CF0000F5F1F4F0E151F05B0F2DF91CF911F91AF
:100D00000F91FF90EF90DF90CF90BF90AF909F90AA
:100D10008F900895E0E0FAE0108286818C7F8683D0
:100D200010A211A20895E0E0FAE010A211A28681BB
:100D30008C7F8160868386E08083089520E030E0A8
:100D400004C02091A10A207230E0232BD1F38093BC
:100D5000A00A80E090E004C08091A10A807290E037
:100D6000892BD1F30895CF93DF9300D01F92CDB795
:100D7000DEB769837A838B839C83862F0E949E06CD
:100D80008A810E949E068B810E949E068C810E9411
:100D90009E062496CDBFDEBFDF91CF910895CF92FE
:100DA000DF92EF92FF920F931F93CF93DF937C011B
:100DB000A0E0B2E081E08C93E0E4F2E080838C91EB
:100DC00084608C938081846080838091060280910E
:100DD00046028F708130C9F7440F551FEB01C40FD5
:100DE000D51F08811981000F111F000F111F000F5F
:100DF000111F0E0D1F1DC12C6894DD24D1F8F601C2
:100E000064A175A180E090E00E94C008F8016483AD
:100E10007583868397830990D881C02DCC0FDD1F01
:100E2000CC0FDD1FCC0FDD1FCE0DDF1D00E412E067
:100E3000F80164A175A180E090E00E94C008688379
:100E400079838A839B83F60180818E7F8083F8017A
:100E500080818E7F8083DF91CF911F910F91FF90D2
:100E6000EF90DF90CF9008951F920F920FB60F92E0
:100E700011240BB60F922F933F934F935F936F9371
:100E80007F938F939F93AF93BF93EF93FF93409183
:100E900006205091072060910E2070910F208091C4
:100EA0000C2090910D200E94CF06809106209091F9
:100EB000072001968093062090930720FF91EF91E1
:100EC000BF91AF919F918F917F916F915F914F9162
:100ED0003F912F910F900BBE0F900FBE0F901F9060
:100EE00018950E94E4070E94F6070E94CD070E9411
:100EF00001080E940F080E9447087894E0EAF0E099
:100F00008281816082830E94FB0380930C209093F6
:100F10000D200E94780380930820909309200E945E
:100F2000520380930E2090930F200E94AB05809374
:100F30000A2090930B200E949306809106209091A6
:100F400007208F3F9140C9F70E948A0640910E20EA
:100F500050910F2060910A2070910B2080910C20FD
:100F600090910D200E94000460910820709109204A
:100F700080910C2090910D200E94930460E072E01B
:100F800080910C2090910D200E9442061092062024
:100F9000109207200E949306D0CF84E080938206AF
:100FA00088E08093810680938506E0EAFAE08781F5
:100FB000806D87838681836886838581836085834E
:100FC0008481886184830895E0E5F0E08081826017
:100FD00080838091510081FFFCCF88ED84BFE0E4E5
:100FE000F0E081E08083118211820895E0E0FAE070
:100FF0001182108281E0868389E190E086A397A325
:101000000895E1E0F6E080E880838093050680E1C2
:101010008093810682E0808380930606089581E0B4
:101020008093020680932206A0E0B2E083E014964B
:101030008C931497E0E4F2E0848312968C911297DB
:1010400012968C9312978281828312968C911297BA
:10105000806112968C931297828180618283909630
:101060008C919097816090968C93909780A18160ED
:1010700080A391968C919197876091968C9391978C
:1010800081A1876081A391961C9211A20895E0E24C
:10109000F3E01282118285E0808308955058BB27C7
:1010A000AA270E9466080C943F090E94060938F09E
:1010B0000E940D0920F039F49F3F19F426F40C9496
:1010C00003090EF4E095E7FB0C94FD08E92F0E945C
:1010D000640958F3BA17620773078407950720F06D
:1010E00079F4A6F50C9486090EF4E0950B2EBA2F30
:1010F000A02D0B01B90190010C01CA01A00111241E
:10110000FF27591B99F0593F50F4503E68F11A16C9
:10111000F040A22F232F342F4427585FF3CF46955A
:1011200037952795A795F0405395C9F77EF41F167C
:10113000BA0B620B730B840BBAF09150A1F0FF0F46
:10114000BB1F661F771F881FC2F70EC0BA0F621F32
:10115000731F841F48F4879577956795B795F79522
:101160009E3F08F0B0CF9395880F08F09927EE0FB7
:101170009795879508950E941609E3950C94500958
:10118000E89409C097FB3EF4909580957095619521
:101190007F4F8F4F9F4F9923A9F0F92F96E9BB27D7
:1011A0009395F695879577956795B795F111F8CF53
:1011B000FAF4BB0F11F460FF1BC06F5F7F4F8F4FBE
:1011C0009F4F16C0882311F096E911C0772321F0B4
:1011D0009EE8872F762F05C0662371F096E8862F4C
:1011E00070E060E02AF09A95660F771F881FDAF7A3
:1011F000880F9695879597F9089597F99F6780E8E6
:1012000070E060E008959FEF80EC089500240A9458
:101210001616170618060906089500240A941216D1
:1012200013061406050608950C9403090E946C0920
:10123000D8F3E894E0E0BB279F57F0F02AED3FE0B9
:1012400049EC06C0EE0FBB0F661F771F881F28F002
:10125000B23A62077307840728F0B25A620B730B25
:10126000840BE3959A9572F7803830F49A95BB0F0A
:10127000661F771F881FD2F790480C94730A092EB7
:101280000394000C11F4882352F0BB0F40F4BF2BE1
:1012900011F460FF04C06F5F7F4F8F4F9F4F089521
:1012A000EF93E0FF07C0A2EA2AED3FE049EC5FEBD5
:1012B0000E9466080E943F090F90039401FC905819
:1012C000ECEFF1E00C94860A57FD9058440F551F3F
:1012D00059F05F3F71F04795880F97FB991F61F0B8
:1012E0009F3F79F087950895121613061406551F2F
:1012F000F2CF4695F1DF08C0161617061806991F9B
:10130000F1CF86957105610508940895E894BB278F
:1013100066277727CB0197F908950E944D0A08F4B4
:101320008FEF08950E94A5090C943F090E940609B9
:1013300038F00E940D0920F0952311F00C94FD085F
:101340000C94030911240C9487090E94640970F31A
:10135000959FC1F3950F50E0551F629FF001729F5A
:10136000BB27F00DB11D639FAA27F00DB11DAA1F69
:10137000649F6627B00DA11D661F829F2227B00DB6
:10138000A11D621F739FB00DA11D621F839FA00D41
:10139000611D221F749F3327A00D611D231F849F91
:1013A000600D211D822F762F6A2F11249F575040E8
:1013B0009AF0F1F088234AF0EE0FFF1FBB1F661F63
:1013C000771F881F91505040A9F79E3F510580F02C
:1013D0000C94FD080C9487095F3FE4F3983ED4F326
:1013E000869577956795B795F795E7959F5FC1F7D0
:1013F000FE2B880F911D9695879597F908959F93D9
:101400000E9416090F9007FCEE5F0C94500919F426
:1014100016F40C9403090C94710A0E946C09B8F339
:101420009923C9F3B6F39F57550B87FF0E947F0A94
:101430000024A0E640EA900180585695979528F43C
:10144000805C660F771F881F20F026173707480734
:1014500030F4621B730B840B202931294A2BA6958B
:1014600017940794202531254A2758F7660F771FD0
:10147000881F20F026173707480730F4620B730BDC
:10148000840B200D311D411DA09581F7B901842FDA
:101490009158880F969587950895990F0008550FD4
:1014A000AA0BE0E8FEEF16161706E807F907C0F0EA
:1014B00012161306E407F50798F0621B730B840BF2
:1014C000950B39F40A2661F0232B242B252B21F4CC
:1014D00008950A2609F4A140A6958FEF811D811D6C
:1014E00008959F3F31F0915020F487957795679547
:1014F000B795880F911D9695879597F90895915006
:101500005040660F771F881FD2F708959F938F93DF
:101510007F936F93FF93EF939B01AC010E9492091D
:10152000EF91FF910E949A0A2F913F914F915F9105
:101530000C949209DF93CF931F930F93FF92EF9236
:10154000DF927B018C01689406C0DA2EEF010E94C5
:10155000A509FE01E894A5912591359145915591F4
:10156000A6F3EF010E946608FE019701A801DA9434
:1015700069F7DF90EF90FF900F911F91CF91DF916E
:101580000895AA1BBB1B51E107C0AA1FBB1FA617CA
:10159000B70710F0A61BB70B881F991F5A95A9F71C
:1015A00080959095BC01CD0108950F931F93CF9323
:1015B000DF938230910510F482E090E0E0911220F8
:1015C000F091132020E030E0A0E0B0E0309719F176
:1015D000408151810281138148175907C8F084174F
:1015E000950769F4109731F012960C9312971396A1
:1015F0001C9327C0009312201093132022C02115A2
:10160000310519F04217530718F49A01BD01EF0193
:10161000DF01F801DBCF21153105F9F0281B390B6B
:101620002430310580F48A819B816115710521F098
:10163000FB018283938304C0809312209093132034
:10164000FE01329644C0FE01E20FF31F8193919395
:1016500022503109288339833AC0209110203091DB
:101660001120232B41F4209102203091032020935C
:10167000102030931120209100203091012021155D
:10168000310541F42DB73EB740910420509105201B
:10169000241B350BE0911020F0911120E217F30785
:1016A000A0F42E1B3F0B2817390778F0AC014E5FD2
:1016B0005F4F2417350748F04E0F5F1F40931020EF
:1016C000509311208193919302C0E0E0F0E0CF01AC
:1016D000DF91CF911F910F910895CF93DF930097E2
:1016E00009F481C0FC01329712821382A09112206A
:1016F000B0911320109781F420813181820F931FC4
:1017000020911020309111202817390751F5E093CE
:101710001020F093112067C0ED0120E030E0CE17DB
:10172000DF0740F44A815B819E0141155105F1F0CC
:10173000EA01F5CFC283D38340815181840F951F85
:10174000C817D90759F488819981840F951F02968B
:10175000808391838A819B818283938321153105C4
:1017600029F4E0931220F09313203DC0E901EA83AD
:10177000FB8349915991C40FD51FEC17FD0761F404
:1017800080819181840F951F0296E9018883998356
:10179000828193818A839B83E0E0F0E012968D91B1
:1017A0009C911397009719F0FD01DC01F7CF8D9103
:1017B0009C9111979D012E5F3F4F820F931F2091A7
:1017C0001020309111202817390769F4309729F437
:1017D000109212201092132002C012821382A09342
:1017E0001020B0931120DF91CF910895F894FFCF8E
:0617F0000000142020009F
:00000001FF
